:100000000C9434000C9411010C9435010C945100A3
:100010000C9451000C9451000C9451000C9451001C
:100020000C9451000C9451000C9451000C949302C8
:100030000C9451000C9451000C9451000C945100FC
:100040000C9451000C9451000C9451000C945100EC
:100050000C9451000C9451000C9451000C945100DC
:100060000C9451000C94510011241FBECFEFD8E026
:10007000DEBFCDBF11E0A0E0B1E0ECE7FCE002C0E4
:1000800005900D92A637B107D9F721E0A6E7B1E0B8
:1000900001C01D92A139B207E1F70E94AA020C9497
:1000A0003C060C9400003B9A43983D9A459A3C9834
:1000B000449808950E948001882309F476C08091B5
:1000C0008B0190918C010E940E0399278F3491052A
:1000D00009F442C0DCF48333910509F44BC0873442
:1000E000910519F18133910509F053C08CE191E03C
:1000F0000E949203439A80918001909181018C50DB
:100100009E4F90937B0180937A014FC08736910573
:1001100061F024F48235910599F03BC08F3691054A
:10012000D9F08237910561F034C05D982FEF89E6F0
:1001300098E1215080409040E1F700C0000018C0D5
:100140005E982FEF89E698E1215080409040E1F7DA
:1001500000C000005E9A29C05E985D982FEF89E686
:1001600098E1215080409040E1F700C000005E9A85
:100170005D9A1BC08AE291E00E94920345988091AB
:10018000800190918101C29690937F0180937E01BE
:100190000CC09F938F9381E391E09F938F930E9474
:1001A0007E030F900F900F900F908091800190919F
:1001B000810120917A0130917B012817390728F4B9
:1001C000439810927B0110927A0180918001909166
:1001D000810120917E0130917F012817390728F491
:1001E000459A10927F0110927E01089580918001BE
:1001F0009091810120917C0130917D01821B930BB4
:10020000459770F0809180019091810190937D01DC
:1002100080937C01349904C085E391E00C949203AF
:1002200008951F920F920FB60F9211242F933F93B0
:100230004F935F936F937F938F939F93AF93BF93EE
:10024000EF93FF930E949801FF91EF91BF91AF91BF
:100250009F918F917F916F915F914F913F912F91DE
:100260000F900FBE0F901F9018951F920F920FB610
:100270000F9211242F933F934F935F936F937F932C
:100280008F939F93AF93BF93EF93FF930E94D301FC
:10029000FF91EF91BF91AF919F918F917F916F915E
:1002A0005F914F913F912F910F900FBE0F901F9034
:1002B00018951092C50080E18093C400E0ECF0E056
:1002C00080818260808386E08093C20088E1809391
:1002D000C1000895CF93C82F8A3019F48DE00E9491
:1002E0006A018091C00085FFFCCFC093C600CF910A
:1002F00008958091C00087FFFCCF8091C6000895CB
:100300008091C00080780895529853985A9A5B9AC9
:10031000E9E6F0E080818F608083E89AE99A559A57
:10032000569A5D9A5E9A3D9A459A579A5F9A0895B1
:10033000809180019091810190938A01809389013D
:100340002091780130917901C9010197FC0197FD55
:10035000379623E0F595E7952A95E1F7EE57FE4F9E
:10036000408168E070E00E94E60227E030E0281B50
:10037000390B81E090E0022E01C0880F0A94EAF761
:1003800080958423808380917801909179010196F2
:1003900090937901809378018FE891E00197F1F7CC
:1003A00000C0000008958091800190918101909398
:1003B0008A01809389012091780130917901C901E6
:1003C0000197FC0197FD379633E0F595E7953A954F
:1003D000E1F7EE57FE4F408168E070E00E94E602D0
:1003E00027E030E0281B390B81E090E0022E01C0AD
:1003F000880F0A94EAF7482B408380917801909106
:100400007901019690937901809378018FE891E0CA
:100410000197F1F700C0000008950F931F93CF9349
:10042000DF93F8948091780190917901181619065C
:100430009CF48091800190918101209189013091FB
:100440008A01821B930B8135910534F081E090E0A5
:100450009093770180937601809178019091790152
:100460001816190634F07894DF91CF911F910F91EF
:1004700008958091760190917701019731F08091F4
:10048000780190917901829774F360918D01709158
:100490008E0183E490E00E944C03C3E0D0E001E7CA
:1004A00011E0FE01EE57FE4F80811F928F931F9344
:1004B0000F930E947E0321970F900F900F900F9043
:1004C000CF3F8FEFD80769F760918D0170918E0152
:1004D0008AE090E00E944C0310927901109278011A
:1004E000109277011092760180E090E0FC01EE57C7
:1004F000FE4F1082019687309105C1F7B4CFE1E835
:10050000F0E0808188608083AFE6B0E08C9182600B
:100510008C9383EC99E0909389008093880080818C
:100520008360808308951F920F920FB60F9211245B
:100530008F939F9380918001909181010196909378
:100540008101809380019F918F910F900FBE0F903A
:100550001F90189590E080E80FB6F89480936100A2
:10056000909361000FBE84B7877F84BF88E10FB688
:10057000F89480936000109260000FBE0E945901B1
:100580008EE091E090938E0180938D0180E091E068
:1005900090938C0180938B010E947F0287E391E00E
:1005A0000E9492030E9453008AE491E00E94920309
:1005B0000E9484018FE591E00E94920378940E944A
:1005C0005A000E94F6000E940D02F9CF97FB072EF9
:1005D00016F4009407D077FD09D00E94FA0207FCB8
:1005E00005D03EF4909581959F4F08957095619543
:1005F0007F4F0895AA1BBB1B51E107C0AA1FBB1F59
:10060000A617B70710F0A61BB70B881F991F5A959E
:10061000A9F780959095BC01CD010895CF93DF9304
:10062000EC012B8120FF33C026FF0AC02F7B2B83D8
:100630008E819F8101969F838E838A8190E029C05D
:1006400022FF0FC0E881F9818081992787FD90956D
:10065000009719F420622B831AC03196F983E8833E
:100660000EC0EA85FB85099597FF09C02B8101968D
:1006700011F480E101C080E2822B8B8308C02E81BF
:100680003F812F5F3F4F3F832E83992702C08FEF1B
:100690009FEFDF91CF9108950F931F93CF93DF9337
:1006A000182F092FEB018B8181FD03C08FEF9FEF86
:1006B00020C082FF10C04E815F812C813D81421796
:1006C00053077CF4E881F9819F012F5F3F4F398305
:1006D0002883108306C0E885F985812F0995892B29
:1006E00029F72E813F812F5F3F4F3F832E83812F3C
:1006F000902FDF91CF911F910F910895A0E0B0E06E
:10070000E4E8F3E00C941506FE01359661917191D1
:10071000AF0180918D0190918E010E94BF03E2E0B4
:100720000C9431060F931F93CF93DF93E0918D01CB
:10073000F0918E01238121FF1BC0EC0100E010E04D
:10074000899160918D0170918E01DB011896ED9178
:10075000FC911997882331F00995892B89F30FEFC4
:100760001FEFEECF8AE00995892B11F4C80102C072
:100770008FEF9FEFDF91CF911F910F910895ACE024
:10078000B0E0E5ECF3E00C9405067C016B018A0116
:10079000FC0117821682838181FFBDC1CE010196C3
:1007A0004C01F7019381F60193FD859193FF8191AF
:1007B0006F01882309F4ABC1853239F493FD85912B
:1007C00093FF81916F01853229F4B70190E00E9477
:1007D0004C03E7CF512C312C20E02032A0F48B3297
:1007E00069F030F4803259F0833269F420612CC012
:1007F0008D3239F0803339F4216026C022602460C4
:1008000023C0286021C027FD27C030ED380F3A30C3
:1008100078F426FF06C0FAE05F9E300D1124532EB7
:1008200013C08AE0389E300D1124332E20620CC094
:100830008E3221F426FD6BC1206406C08C3611F483
:10084000206802C0883641F4F60193FD859193FF3C
:1008500081916F018111C1CF982F9F7D9554933065
:1008600028F40C5F1F4FFFE3F9830DC0833631F08E
:10087000833771F0833509F05BC022C0F8018081B5
:1008800089830E5F1F4F44244394512C540115C09B
:100890003801F2E06F0E711CF801A080B18026FFD4
:1008A00003C0652D70E002C06FEF7FEFC5012C879C
:1008B0000E949C052C0183012C852F77222E17C0C6
:1008C0003801F2E06F0E711CF801A080B18026FFA4
:1008D00003C0652D70E002C06FEF7FEFC5012C876C
:1008E0000E9491052C012C852068222E830123FC77
:1008F0001BC0832D90E048165906B0F4B70180E282
:1009000090E00E944C033A94F4CFF50127FC8591C6
:1009100027FE81915F01B70190E00E944C033110E6
:100920003A94F1E04F1A51084114510471F7E5C0AF
:10093000843611F0893639F5F80127FF07C0608148
:100940007181828193810C5F1F4F08C0608171812A
:10095000882777FD8095982F0E5F1F4F2F76B22E38
:1009600097FF09C090958095709561957F4F8F4F47
:100970009F4F2068B22E2AE030E0A4010E94A70514
:10098000A82EA81844C0853729F42F7EB22E2AE05D
:1009900030E025C0F22FF97FBF2E8F36C1F018F45A
:1009A000883579F0B4C0803719F0883721F0AFC0AE
:1009B0002F2F2061B22EB4FE0DC08B2D8460B82E77
:1009C00009C024FF0AC09F2F9660B92E06C028E0F8
:1009D00030E005C020E130E002C020E132E0F80163
:1009E000B7FE07C060817181828193810C5F1F4FC8
:1009F00006C06081718180E090E00E5F1F4FA4010E
:100A00000E94A705A82EA818FB2DFF77BF2EB6FEC3
:100A10000BC02B2D2E7FA51450F4B4FE0AC0B2FCDF
:100A200008C02B2D2E7E05C07A2C2B2D03C07A2CCE
:100A300001C0752C24FF0DC0FE01EA0DF11D80815F
:100A4000803311F4297E09C022FF06C07394739489
:100A500004C0822F867809F0739423FD13C020FF11
:100A600006C05A2C731418F4530C5718732C7314B3
:100A700068F4B70180E290E02C870E944C037394E5
:100A80002C85F5CF731410F4371801C0312C24FFD6
:100A900012C0B70180E390E02C870E944C032C85A4
:100AA00022FF17C021FF03C088E590E002C088E75D
:100AB00090E0B7010CC0822F867859F021FD02C06A
:100AC00080E201C08BE227FD8DE2B70190E00E9439
:100AD0004C03A51438F4B70180E390E00E944C0366
:100AE0005A94F7CFAA94F401EA0DF11D8081B70161
:100AF00090E00E944C03A110F5CF332009F451CEB1
:100B0000B70180E290E00E944C033A94F6CFF701DF
:100B10008681978102C08FEF9FEF2C96E2E10C94C3
:100B20002106FC010590615070400110D8F78095B6
:100B300090958E0F9F1F0895FC01615070400190A9
:100B40000110D8F7809590958E0F9F1F0895FA0198
:100B5000AA27283051F1203181F1E8946F936E7FFC
:100B60006E5F7F4F8F4F9F4FAF4FB1E03ED0B4E0ED
:100B70003CD0670F781F891F9A1FA11D680F791F2E
:100B80008A1F911DA11D6A0F711D811D911DA11D3F
:100B900020D009F468943F912AE0269F112430194F
:100BA000305D3193DEF6CF010895462F4770405DEA
:100BB0004193B3E00FD0C9F7F6CF462F4F70405D99
:100BC0004A3318F0495D31FD4052419302D0A9F7F4
:100BD000EACFB4E0A6959795879577956795BA95EE
:100BE000C9F700976105710508959B01AC010A2EB4
:100BF00006945795479537952795BA95C9F7620F8B
:100C0000731F841F951FA01D08952F923F924F922E
:100C10005F926F927F928F929F92AF92BF92CF928C
:100C2000DF92EF92FF920F931F93CF93DF93CDB795
:100C3000DEB7CA1BDB0B0FB6F894DEBF0FBECDBF0D
:100C400009942A88398848885F846E847D848C84DE
:100C50009B84AA84B984C884DF80EE80FD800C81E7
:100C60001B81AA81B981CE0FD11D0FB6F894DEBFCA
:0C0C70000FBECDBFED010895F894FFCF3A
:100C7C0000000001000000000000790100000000ED
:100C8C000002000000006A0100000000234F7065A4
:100C9C006E696E6720446F6F720023425A5A5A5A1B
:100CAC000025630A0042002354696D657273204964
:100CBC006E6974616C697365640023436F6E747242
:100CCC006F6C20496E697469616C6973656400238B
:100CDC005246494420496E697469616C6973656454
:060CEC0000252E32780005
:00000001FF
